{
  "_format": "hh-sol-artifact-1",
  "contractName": "TestPresale",
  "sourceName": "contracts/presale/TestPresale.sol",
  "abi": [
    {
      "inputs": [
        {
          "internalType": "contract IERC20",
          "name": "_token",
          "type": "address"
        },
        {
          "internalType": "contract AggregatorV3Interface",
          "name": "_pricFeed",
          "type": "address"
        },
        {
          "internalType": "uint8",
          "name": "_pricFeed_Dec",
          "type": "uint8"
        },
        {
          "internalType": "uint256",
          "name": "_startTimeStamp",
          "type": "uint256"
        },
        {
          "internalType": "uint256",
          "name": "_endTimeStamp",
          "type": "uint256"
        },
        {
          "internalType": "uint256",
          "name": "_tokenPerUSD",
          "type": "uint256"
        },
        {
          "internalType": "uint256",
          "name": "_maxBnb",
          "type": "uint256"
        }
      ],
      "stateMutability": "nonpayable",
      "type": "constructor"
    },
    {
      "anonymous": false,
      "inputs": [
        {
          "indexed": true,
          "internalType": "address",
          "name": "previousOwner",
          "type": "address"
        },
        {
          "indexed": true,
          "internalType": "address",
          "name": "newOwner",
          "type": "address"
        }
      ],
      "name": "OwnershipTransferred",
      "type": "event"
    },
    {
      "inputs": [],
      "name": "availableTokens",
      "outputs": [
        {
          "internalType": "uint256",
          "name": "",
          "type": "uint256"
        }
      ],
      "stateMutability": "view",
      "type": "function"
    },
    {
      "inputs": [],
      "name": "buy",
      "outputs": [],
      "stateMutability": "payable",
      "type": "function"
    },
    {
      "inputs": [
        {
          "internalType": "address",
          "name": "",
          "type": "address"
        }
      ],
      "name": "buyAmount",
      "outputs": [
        {
          "internalType": "uint256",
          "name": "",
          "type": "uint256"
        }
      ],
      "stateMutability": "view",
      "type": "function"
    },
    {
      "inputs": [
        {
          "internalType": "uint256",
          "name": "_amount",
          "type": "uint256"
        }
      ],
      "name": "calculateAmount",
      "outputs": [
        {
          "internalType": "uint256",
          "name": "",
          "type": "uint256"
        }
      ],
      "stateMutability": "view",
      "type": "function"
    },
    {
      "inputs": [],
      "name": "endTimeStamp",
      "outputs": [
        {
          "internalType": "uint256",
          "name": "",
          "type": "uint256"
        }
      ],
      "stateMutability": "view",
      "type": "function"
    },
    {
      "inputs": [],
      "name": "getBNB",
      "outputs": [
        {
          "internalType": "uint256",
          "name": "",
          "type": "uint256"
        }
      ],
      "stateMutability": "view",
      "type": "function"
    },
    {
      "inputs": [],
      "name": "getBNBUSD",
      "outputs": [
        {
          "internalType": "uint256",
          "name": "",
          "type": "uint256"
        }
      ],
      "stateMutability": "view",
      "type": "function"
    },
    {
      "inputs": [],
      "name": "getToken",
      "outputs": [
        {
          "internalType": "uint256",
          "name": "",
          "type": "uint256"
        }
      ],
      "stateMutability": "view",
      "type": "function"
    },
    {
      "inputs": [],
      "name": "maxBnb",
      "outputs": [
        {
          "internalType": "uint256",
          "name": "",
          "type": "uint256"
        }
      ],
      "stateMutability": "view",
      "type": "function"
    },
    {
      "inputs": [],
      "name": "owner",
      "outputs": [
        {
          "internalType": "address",
          "name": "",
          "type": "address"
        }
      ],
      "stateMutability": "view",
      "type": "function"
    },
    {
      "inputs": [],
      "name": "priceFeed",
      "outputs": [
        {
          "internalType": "contract AggregatorV3Interface",
          "name": "",
          "type": "address"
        }
      ],
      "stateMutability": "view",
      "type": "function"
    },
    {
      "inputs": [],
      "name": "priceFeed_Dec",
      "outputs": [
        {
          "internalType": "uint8",
          "name": "",
          "type": "uint8"
        }
      ],
      "stateMutability": "view",
      "type": "function"
    },
    {
      "inputs": [],
      "name": "renounceOwnership",
      "outputs": [],
      "stateMutability": "nonpayable",
      "type": "function"
    },
    {
      "inputs": [],
      "name": "startTimeStamp",
      "outputs": [
        {
          "internalType": "uint256",
          "name": "",
          "type": "uint256"
        }
      ],
      "stateMutability": "view",
      "type": "function"
    },
    {
      "inputs": [],
      "name": "token",
      "outputs": [
        {
          "internalType": "contract IERC20",
          "name": "",
          "type": "address"
        }
      ],
      "stateMutability": "view",
      "type": "function"
    },
    {
      "inputs": [],
      "name": "tokenPerUSD",
      "outputs": [
        {
          "internalType": "uint256",
          "name": "",
          "type": "uint256"
        }
      ],
      "stateMutability": "view",
      "type": "function"
    },
    {
      "inputs": [
        {
          "internalType": "address",
          "name": "newOwner",
          "type": "address"
        }
      ],
      "name": "transferOwnership",
      "outputs": [],
      "stateMutability": "nonpayable",
      "type": "function"
    },
    {
      "inputs": [],
      "name": "withdrawAll",
      "outputs": [],
      "stateMutability": "nonpayable",
      "type": "function"
    }
  ],
  "bytecode": "0x60806040523480156200001157600080fd5b50604051620021b8380380620021b8833981810160405281019062000037919062000245565b620000576200004b6200011d60201b60201c565b6200012560201b60201c565b86600160006101000a81548173ffffffffffffffffffffffffffffffffffffffff021916908373ffffffffffffffffffffffffffffffffffffffff16021790555085600260006101000a81548173ffffffffffffffffffffffffffffffffffffffff021916908373ffffffffffffffffffffffffffffffffffffffff16021790555084600260146101000a81548160ff021916908360ff1602179055508360038190555082600481905550816005819055508060068190555050505050505050620003cd565b600033905090565b60008060009054906101000a900473ffffffffffffffffffffffffffffffffffffffff169050816000806101000a81548173ffffffffffffffffffffffffffffffffffffffff021916908373ffffffffffffffffffffffffffffffffffffffff1602179055508173ffffffffffffffffffffffffffffffffffffffff168173ffffffffffffffffffffffffffffffffffffffff167f8be0079c531659141344cd1fd0a4f28419497f9722a3daafe3b4186f6b6457e060405160405180910390a35050565b600081519050620001fa8162000365565b92915050565b60008151905062000211816200037f565b92915050565b600081519050620002288162000399565b92915050565b6000815190506200023f81620003b3565b92915050565b600080600080600080600060e0888a0312156200026157600080fd5b6000620002718a828b0162000200565b9750506020620002848a828b01620001e9565b9650506040620002978a828b016200022e565b9550506060620002aa8a828b0162000217565b9450506080620002bd8a828b0162000217565b93505060a0620002d08a828b0162000217565b92505060c0620002e38a828b0162000217565b91505092959891949750929550565b6000620002ff826200032e565b9050919050565b60006200031382620002f2565b9050919050565b60006200032782620002f2565b9050919050565b600073ffffffffffffffffffffffffffffffffffffffff82169050919050565b6000819050919050565b600060ff82169050919050565b620003708162000306565b81146200037c57600080fd5b50565b6200038a816200031a565b81146200039657600080fd5b50565b620003a4816200034e565b8114620003b057600080fd5b50565b620003be8162000358565b8114620003ca57600080fd5b50565b611ddb80620003dd6000396000f3fe6080604052600436106101095760003560e01c8063741bef1a116100955780639b2025e3116100645780639b2025e314610339578063a6f2ae3a14610364578063f2fde38b1461036e578063f38d00f014610397578063fc0c546a146103c257610109565b8063741bef1a146102a157806378a619de146102cc578063853828b6146102f75780638da5cb5b1461030e57610109565b80634dee3164116100dc5780634dee3164146101cc57806351906bb0146101f7578063625cb67e1461022257806369bb4dc21461025f578063715018a61461028a57610109565b80630fc6585a1461010e57806321df0da7146101395780634193f3a71461016457806348dc58931461018f575b600080fd5b34801561011a57600080fd5b506101236103ed565b6040516101309190611855565b60405180910390f35b34801561014557600080fd5b5061014e6103f3565b60405161015b9190611855565b60405180910390f35b34801561017057600080fd5b506101796104a5565b6040516101869190611870565b60405180910390f35b34801561019b57600080fd5b506101b660048036038101906101b19190611343565b6104b8565b6040516101c39190611855565b60405180910390f35b3480156101d857600080fd5b506101e161058a565b6040516101ee9190611855565b60405180910390f35b34801561020357600080fd5b5061020c610590565b6040516102199190611855565b60405180910390f35b34801561022e57600080fd5b50610249600480360381019061024491906112f1565b610596565b6040516102569190611855565b60405180910390f35b34801561026b57600080fd5b506102746105ae565b6040516102819190611855565b60405180910390f35b34801561029657600080fd5b5061029f610660565b005b3480156102ad57600080fd5b506102b66106e8565b6040516102c3919061169d565b60405180910390f35b3480156102d857600080fd5b506102e161070e565b6040516102ee9190611855565b60405180910390f35b34801561030357600080fd5b5061030c610716565b005b34801561031a57600080fd5b50610323610953565b6040516103309190611659565b60405180910390f35b34801561034557600080fd5b5061034e61097c565b60405161035b9190611855565b60405180910390f35b61036c610a2c565b005b34801561037a57600080fd5b50610395600480360381019061039091906112f1565b610d7a565b005b3480156103a357600080fd5b506103ac610e72565b6040516103b99190611855565b60405180910390f35b3480156103ce57600080fd5b506103d7610e78565b6040516103e491906116b8565b60405180910390f35b60065481565b6000600160009054906101000a900473ffffffffffffffffffffffffffffffffffffffff1673ffffffffffffffffffffffffffffffffffffffff166370a08231306040518263ffffffff1660e01b81526004016104509190611659565b60206040518083038186803b15801561046857600080fd5b505afa15801561047c573d6000803e3d6000fd5b505050506040513d601f19601f820116820180604052508101906104a0919061136c565b905090565b600260149054906101000a900460ff1681565b600067016345785d8a0000821015801561051e575060065482600760003373ffffffffffffffffffffffffffffffffffffffff1673ffffffffffffffffffffffffffffffffffffffff1681526020019081526020016000205461051b91906118bd565b11155b61055d576040517f08c379a000000000000000000000000000000000000000000000000000000000815260040161055490611775565b60405180910390fd5b600061056761097c565b905060055481846105789190611944565b6105829190611913565b915050919050565b60055481565b60045481565b60076020528060005260406000206000915090505481565b6000600160009054906101000a900473ffffffffffffffffffffffffffffffffffffffff1673ffffffffffffffffffffffffffffffffffffffff166370a08231306040518263ffffffff1660e01b815260040161060b9190611659565b60206040518083038186803b15801561062357600080fd5b505afa158015610637573d6000803e3d6000fd5b505050506040513d601f19601f8201168201806040525081019061065b919061136c565b905090565b610668610e9e565b73ffffffffffffffffffffffffffffffffffffffff16610686610953565b73ffffffffffffffffffffffffffffffffffffffff16146106dc576040517f08c379a00000000000000000000000000000000000000000000000000000000081526004016106d390611795565b60405180910390fd5b6106e66000610ea6565b565b600260009054906101000a900473ffffffffffffffffffffffffffffffffffffffff1681565b600047905090565b61071e610e9e565b73ffffffffffffffffffffffffffffffffffffffff1661073c610953565b73ffffffffffffffffffffffffffffffffffffffff1614610792576040517f08c379a000000000000000000000000000000000000000000000000000000000815260040161078990611795565b60405180910390fd5b61079a610953565b73ffffffffffffffffffffffffffffffffffffffff166108fc479081150290604051600060405180830381858888f193505050501580156107df573d6000803e3d6000fd5b506000600160009054906101000a900473ffffffffffffffffffffffffffffffffffffffff1673ffffffffffffffffffffffffffffffffffffffff166370a08231306040518263ffffffff1660e01b815260040161083d9190611659565b60206040518083038186803b15801561085557600080fd5b505afa158015610869573d6000803e3d6000fd5b505050506040513d601f19601f8201168201806040525081019061088d919061136c565b9050600081111561095057600160009054906101000a900473ffffffffffffffffffffffffffffffffffffffff1673ffffffffffffffffffffffffffffffffffffffff1663a9059cbb6108de610e9e565b836040518363ffffffff1660e01b81526004016108fc929190611674565b602060405180830381600087803b15801561091657600080fd5b505af115801561092a573d6000803e3d6000fd5b505050506040513d601f19601f8201168201806040525081019061094e919061131a565b505b50565b60008060009054906101000a900473ffffffffffffffffffffffffffffffffffffffff16905090565b600080600260009054906101000a900473ffffffffffffffffffffffffffffffffffffffff1673ffffffffffffffffffffffffffffffffffffffff1663feaf968c6040518163ffffffff1660e01b815260040160a06040518083038186803b1580156109e757600080fd5b505afa1580156109fb573d6000803e3d6000fd5b505050506040513d601f19601f82011682018060405250810190610a1f9190611395565b5050509150508091505090565b600354421015610a71576040517f08c379a0000000000000000000000000000000000000000000000000000000008152600401610a68906116f5565b60405180910390fd5b6004544210610ab5576040517f08c379a0000000000000000000000000000000000000000000000000000000008152600401610aac906117d5565b60405180910390fd5b610adb610ac0610e9e565b73ffffffffffffffffffffffffffffffffffffffff16610f6a565b15610b1b576040517f08c379a0000000000000000000000000000000000000000000000000000000008152600401610b12906117b5565b60405180910390fd5b60086000610b27610e9e565b73ffffffffffffffffffffffffffffffffffffffff1673ffffffffffffffffffffffffffffffffffffffff168152602001908152602001600020600043815260200190815260200160002060009054906101000a900460ff1615610bc0576040517f08c379a0000000000000000000000000000000000000000000000000000000008152600401610bb790611755565b60405180910390fd5b600160086000610bce610e9e565b73ffffffffffffffffffffffffffffffffffffffff1673ffffffffffffffffffffffffffffffffffffffff168152602001908152602001600020600043815260200190815260200160002060006101000a81548160ff02191690831515021790555060003411610c73576040517f08c379a0000000000000000000000000000000000000000000000000000000008152600401610c6a90611815565b60405180910390fd5b610ccc3460076000610c83610e9e565b73ffffffffffffffffffffffffffffffffffffffff1673ffffffffffffffffffffffffffffffffffffffff16815260200190815260200160002054610f7d90919063ffffffff16565b60076000610cd8610e9e565b73ffffffffffffffffffffffffffffffffffffffff1673ffffffffffffffffffffffffffffffffffffffff168152602001908152602001600020819055506000610d21346104b8565b9050610d77610d2e610e9e565b82600160009054906101000a900473ffffffffffffffffffffffffffffffffffffffff1673ffffffffffffffffffffffffffffffffffffffff16610f939092919063ffffffff16565b50565b610d82610e9e565b73ffffffffffffffffffffffffffffffffffffffff16610da0610953565b73ffffffffffffffffffffffffffffffffffffffff1614610df6576040517f08c379a0000000000000000000000000000000000000000000000000000000008152600401610ded90611795565b60405180910390fd5b600073ffffffffffffffffffffffffffffffffffffffff168173ffffffffffffffffffffffffffffffffffffffff161415610e66576040517f08c379a0000000000000000000000000000000000000000000000000000000008152600401610e5d90611715565b60405180910390fd5b610e6f81610ea6565b50565b60035481565b600160009054906101000a900473ffffffffffffffffffffffffffffffffffffffff1681565b600033905090565b60008060009054906101000a900473ffffffffffffffffffffffffffffffffffffffff169050816000806101000a81548173ffffffffffffffffffffffffffffffffffffffff021916908373ffffffffffffffffffffffffffffffffffffffff1602179055508173ffffffffffffffffffffffffffffffffffffffff168173ffffffffffffffffffffffffffffffffffffffff167f8be0079c531659141344cd1fd0a4f28419497f9722a3daafe3b4186f6b6457e060405160405180910390a35050565b600080823b905060008111915050919050565b60008183610f8b91906118bd565b905092915050565b6110148363a9059cbb60e01b8484604051602401610fb2929190611674565b604051602081830303815290604052907bffffffffffffffffffffffffffffffffffffffffffffffffffffffff19166020820180517bffffffffffffffffffffffffffffffffffffffffffffffffffffffff8381831617835250505050611019565b505050565b600061107b826040518060400160405280602081526020017f5361666545524332303a206c6f772d6c6576656c2063616c6c206661696c65648152508573ffffffffffffffffffffffffffffffffffffffff166110e09092919063ffffffff16565b90506000815111156110db578080602001905181019061109b919061131a565b6110da576040517f08c379a00000000000000000000000000000000000000000000000000000000081526004016110d190611835565b60405180910390fd5b5b505050565b60606110ef84846000856110f8565b90509392505050565b60608247101561113d576040517f08c379a000000000000000000000000000000000000000000000000000000000815260040161113490611735565b60405180910390fd5b61114685610f6a565b611185576040517f08c379a000000000000000000000000000000000000000000000000000000000815260040161117c906117f5565b60405180910390fd5b6000808673ffffffffffffffffffffffffffffffffffffffff1685876040516111ae9190611642565b60006040518083038185875af1925050503d80600081146111eb576040519150601f19603f3d011682016040523d82523d6000602084013e6111f0565b606091505b509150915061120082828661120c565b92505050949350505050565b6060831561121c5782905061126c565b60008351111561122f5782518084602001fd5b816040517f08c379a000000000000000000000000000000000000000000000000000000000815260040161126391906116d3565b60405180910390fd5b9392505050565b60008135905061128281611d32565b92915050565b60008151905061129781611d49565b92915050565b6000815190506112ac81611d60565b92915050565b6000813590506112c181611d77565b92915050565b6000815190506112d681611d77565b92915050565b6000815190506112eb81611d8e565b92915050565b60006020828403121561130357600080fd5b600061131184828501611273565b91505092915050565b60006020828403121561132c57600080fd5b600061133a84828501611288565b91505092915050565b60006020828403121561135557600080fd5b6000611363848285016112b2565b91505092915050565b60006020828403121561137e57600080fd5b600061138c848285016112c7565b91505092915050565b600080600080600060a086880312156113ad57600080fd5b60006113bb888289016112dc565b95505060206113cc8882890161129d565b94505060406113dd888289016112c7565b93505060606113ee888289016112c7565b92505060806113ff888289016112dc565b9150509295509295909350565b6114158161199e565b82525050565b60006114268261188b565b61143081856118a1565b9350611440818560208601611a5b565b80840191505092915050565b61145581611a13565b82525050565b61146481611a37565b82525050565b600061147582611896565b61147f81856118ac565b935061148f818560208601611a5b565b61149881611aec565b840191505092915050565b60006114b06009836118ac565b91506114bb82611afd565b602082019050919050565b60006114d36026836118ac565b91506114de82611b26565b604082019050919050565b60006114f66026836118ac565b915061150182611b75565b604082019050919050565b6000611519600d836118ac565b915061152482611bc4565b602082019050919050565b600061153c6009836118ac565b915061154782611bed565b602082019050919050565b600061155f6020836118ac565b915061156a82611c16565b602082019050919050565b6000611582600c836118ac565b915061158d82611c3f565b602082019050919050565b60006115a56003836118ac565b91506115b082611c68565b602082019050919050565b60006115c8601d836118ac565b91506115d382611c91565b602082019050919050565b60006115eb600a836118ac565b91506115f682611cba565b602082019050919050565b600061160e602a836118ac565b915061161982611ce3565b604082019050919050565b61162d816119e6565b82525050565b61163c816119f0565b82525050565b600061164e828461141b565b915081905092915050565b600060208201905061166e600083018461140c565b92915050565b6000604082019050611689600083018561140c565b6116966020830184611624565b9392505050565b60006020820190506116b2600083018461144c565b92915050565b60006020820190506116cd600083018461145b565b92915050565b600060208201905081810360008301526116ed818461146a565b905092915050565b6000602082019050818103600083015261170e816114a3565b9050919050565b6000602082019050818103600083015261172e816114c6565b9050919050565b6000602082019050818103600083015261174e816114e9565b9050919050565b6000602082019050818103600083015261176e8161150c565b9050919050565b6000602082019050818103600083015261178e8161152f565b9050919050565b600060208201905081810360008301526117ae81611552565b9050919050565b600060208201905081810360008301526117ce81611575565b9050919050565b600060208201905081810360008301526117ee81611598565b9050919050565b6000602082019050818103600083015261180e816115bb565b9050919050565b6000602082019050818103600083015261182e816115de565b9050919050565b6000602082019050818103600083015261184e81611601565b9050919050565b600060208201905061186a6000830184611624565b92915050565b60006020820190506118856000830184611633565b92915050565b600081519050919050565b600081519050919050565b600081905092915050565b600082825260208201905092915050565b60006118c8826119e6565b91506118d3836119e6565b9250827fffffffffffffffffffffffffffffffffffffffffffffffffffffffffffffffff0382111561190857611907611a8e565b5b828201905092915050565b600061191e826119e6565b9150611929836119e6565b92508261193957611938611abd565b5b828204905092915050565b600061194f826119e6565b915061195a836119e6565b9250817fffffffffffffffffffffffffffffffffffffffffffffffffffffffffffffffff048311821515161561199357611992611a8e565b5b828202905092915050565b60006119a9826119c6565b9050919050565b60008115159050919050565b6000819050919050565b600073ffffffffffffffffffffffffffffffffffffffff82169050919050565b6000819050919050565b600060ff82169050919050565b600069ffffffffffffffffffff82169050919050565b6000611a1e82611a25565b9050919050565b6000611a30826119c6565b9050919050565b6000611a4282611a49565b9050919050565b6000611a54826119c6565b9050919050565b60005b83811015611a79578082015181840152602081019050611a5e565b83811115611a88576000848401525b50505050565b7f4e487b7100000000000000000000000000000000000000000000000000000000600052601160045260246000fd5b7f4e487b7100000000000000000000000000000000000000000000000000000000600052601260045260246000fd5b6000601f19601f8301169050919050565b7f6e6f742073746172740000000000000000000000000000000000000000000000600082015250565b7f4f776e61626c653a206e6577206f776e657220697320746865207a65726f206160008201527f6464726573730000000000000000000000000000000000000000000000000000602082015250565b7f416464726573733a20696e73756666696369656e742062616c616e636520666f60008201527f722063616c6c0000000000000000000000000000000000000000000000000000602082015250565b7f626c6f636b2070726576656e7400000000000000000000000000000000000000600082015250565b7f6e6f7420616c6c6f770000000000000000000000000000000000000000000000600082015250565b7f4f776e61626c653a2063616c6c6572206973206e6f7420746865206f776e6572600082015250565b7f6e6f706520616464726573730000000000000000000000000000000000000000600082015250565b7f656e640000000000000000000000000000000000000000000000000000000000600082015250565b7f416464726573733a2063616c6c20746f206e6f6e2d636f6e7472616374000000600082015250565b7f7a65726f20696e70757400000000000000000000000000000000000000000000600082015250565b7f5361666545524332303a204552433230206f7065726174696f6e20646964206e60008201527f6f74207375636365656400000000000000000000000000000000000000000000602082015250565b611d3b8161199e565b8114611d4657600080fd5b50565b611d52816119b0565b8114611d5d57600080fd5b50565b611d69816119bc565b8114611d7457600080fd5b50565b611d80816119e6565b8114611d8b57600080fd5b50565b611d97816119fd565b8114611da257600080fd5b5056fea2646970667358221220675659fdb11b06e3dcf376a681e34ac7baef3c7c745fa1920166fa97e69b1d7e64736f6c63430008020033",
  "linkReferences": {},
  "deployedLinkReferences": {}
}