{
  "_format": "hh-sol-artifact-1",
  "contractName": "TestPresaleToken",
  "sourceName": "contracts/presale/TestPresaleToken.sol",
  "abi": [
    {
      "inputs": [],
      "stateMutability": "nonpayable",
      "type": "constructor"
    },
    {
      "anonymous": false,
      "inputs": [
        {
          "indexed": true,
          "internalType": "address",
          "name": "owner",
          "type": "address"
        },
        {
          "indexed": true,
          "internalType": "address",
          "name": "spender",
          "type": "address"
        },
        {
          "indexed": false,
          "internalType": "uint256",
          "name": "value",
          "type": "uint256"
        }
      ],
      "name": "Approval",
      "type": "event"
    },
    {
      "anonymous": false,
      "inputs": [
        {
          "indexed": true,
          "internalType": "address",
          "name": "previousOwner",
          "type": "address"
        },
        {
          "indexed": true,
          "internalType": "address",
          "name": "newOwner",
          "type": "address"
        }
      ],
      "name": "OwnershipTransferred",
      "type": "event"
    },
    {
      "anonymous": false,
      "inputs": [
        {
          "indexed": true,
          "internalType": "address",
          "name": "from",
          "type": "address"
        },
        {
          "indexed": true,
          "internalType": "address",
          "name": "to",
          "type": "address"
        },
        {
          "indexed": false,
          "internalType": "uint256",
          "name": "value",
          "type": "uint256"
        }
      ],
      "name": "Transfer",
      "type": "event"
    },
    {
      "inputs": [],
      "name": "DAILY_INTERVAL",
      "outputs": [
        {
          "internalType": "uint256",
          "name": "",
          "type": "uint256"
        }
      ],
      "stateMutability": "view",
      "type": "function"
    },
    {
      "inputs": [
        {
          "internalType": "address",
          "name": "",
          "type": "address"
        }
      ],
      "name": "allowMinting",
      "outputs": [
        {
          "internalType": "bool",
          "name": "allowed",
          "type": "bool"
        },
        {
          "internalType": "uint256",
          "name": "dailyLimit",
          "type": "uint256"
        }
      ],
      "stateMutability": "view",
      "type": "function"
    },
    {
      "inputs": [
        {
          "internalType": "address",
          "name": "owner",
          "type": "address"
        },
        {
          "internalType": "address",
          "name": "spender",
          "type": "address"
        }
      ],
      "name": "allowance",
      "outputs": [
        {
          "internalType": "uint256",
          "name": "",
          "type": "uint256"
        }
      ],
      "stateMutability": "view",
      "type": "function"
    },
    {
      "inputs": [
        {
          "internalType": "address",
          "name": "spender",
          "type": "address"
        },
        {
          "internalType": "uint256",
          "name": "amount",
          "type": "uint256"
        }
      ],
      "name": "approve",
      "outputs": [
        {
          "internalType": "bool",
          "name": "",
          "type": "bool"
        }
      ],
      "stateMutability": "nonpayable",
      "type": "function"
    },
    {
      "inputs": [
        {
          "internalType": "address",
          "name": "account",
          "type": "address"
        }
      ],
      "name": "balanceOf",
      "outputs": [
        {
          "internalType": "uint256",
          "name": "",
          "type": "uint256"
        }
      ],
      "stateMutability": "view",
      "type": "function"
    },
    {
      "inputs": [
        {
          "internalType": "uint256",
          "name": "_amount",
          "type": "uint256"
        }
      ],
      "name": "burn",
      "outputs": [],
      "stateMutability": "nonpayable",
      "type": "function"
    },
    {
      "inputs": [
        {
          "internalType": "address",
          "name": "_account",
          "type": "address"
        },
        {
          "internalType": "uint256",
          "name": "_amount",
          "type": "uint256"
        }
      ],
      "name": "burnForm",
      "outputs": [],
      "stateMutability": "nonpayable",
      "type": "function"
    },
    {
      "inputs": [
        {
          "internalType": "address",
          "name": "account",
          "type": "address"
        },
        {
          "internalType": "uint256",
          "name": "amount",
          "type": "uint256"
        }
      ],
      "name": "burnFrom",
      "outputs": [],
      "stateMutability": "nonpayable",
      "type": "function"
    },
    {
      "inputs": [
        {
          "internalType": "address",
          "name": "",
          "type": "address"
        },
        {
          "internalType": "uint256",
          "name": "",
          "type": "uint256"
        }
      ],
      "name": "dailyMint",
      "outputs": [
        {
          "internalType": "uint256",
          "name": "",
          "type": "uint256"
        }
      ],
      "stateMutability": "view",
      "type": "function"
    },
    {
      "inputs": [],
      "name": "decimals",
      "outputs": [
        {
          "internalType": "uint8",
          "name": "",
          "type": "uint8"
        }
      ],
      "stateMutability": "view",
      "type": "function"
    },
    {
      "inputs": [
        {
          "internalType": "address",
          "name": "spender",
          "type": "address"
        },
        {
          "internalType": "uint256",
          "name": "subtractedValue",
          "type": "uint256"
        }
      ],
      "name": "decreaseAllowance",
      "outputs": [
        {
          "internalType": "bool",
          "name": "",
          "type": "bool"
        }
      ],
      "stateMutability": "nonpayable",
      "type": "function"
    },
    {
      "inputs": [
        {
          "internalType": "address",
          "name": "spender",
          "type": "address"
        },
        {
          "internalType": "uint256",
          "name": "addedValue",
          "type": "uint256"
        }
      ],
      "name": "increaseAllowance",
      "outputs": [
        {
          "internalType": "bool",
          "name": "",
          "type": "bool"
        }
      ],
      "stateMutability": "nonpayable",
      "type": "function"
    },
    {
      "inputs": [
        {
          "internalType": "address",
          "name": "_address",
          "type": "address"
        },
        {
          "internalType": "uint256",
          "name": "_amount",
          "type": "uint256"
        }
      ],
      "name": "mintDailyLimited",
      "outputs": [
        {
          "internalType": "bool",
          "name": "",
          "type": "bool"
        }
      ],
      "stateMutability": "view",
      "type": "function"
    },
    {
      "inputs": [
        {
          "internalType": "address",
          "name": "_to",
          "type": "address"
        },
        {
          "internalType": "uint256",
          "name": "_amount",
          "type": "uint256"
        }
      ],
      "name": "mintPresale",
      "outputs": [],
      "stateMutability": "nonpayable",
      "type": "function"
    },
    {
      "inputs": [
        {
          "internalType": "uint256",
          "name": "",
          "type": "uint256"
        }
      ],
      "name": "minters",
      "outputs": [
        {
          "internalType": "address",
          "name": "",
          "type": "address"
        }
      ],
      "stateMutability": "view",
      "type": "function"
    },
    {
      "inputs": [],
      "name": "name",
      "outputs": [
        {
          "internalType": "string",
          "name": "",
          "type": "string"
        }
      ],
      "stateMutability": "view",
      "type": "function"
    },
    {
      "inputs": [],
      "name": "owner",
      "outputs": [
        {
          "internalType": "address",
          "name": "",
          "type": "address"
        }
      ],
      "stateMutability": "view",
      "type": "function"
    },
    {
      "inputs": [],
      "name": "renounceOwnership",
      "outputs": [],
      "stateMutability": "nonpayable",
      "type": "function"
    },
    {
      "inputs": [
        {
          "internalType": "address",
          "name": "_address",
          "type": "address"
        },
        {
          "internalType": "bool",
          "name": "_allowed",
          "type": "bool"
        }
      ],
      "name": "setAllowMint",
      "outputs": [],
      "stateMutability": "nonpayable",
      "type": "function"
    },
    {
      "inputs": [
        {
          "internalType": "address",
          "name": "_address",
          "type": "address"
        },
        {
          "internalType": "uint256",
          "name": "_mintAmount",
          "type": "uint256"
        }
      ],
      "name": "setDailyLimit",
      "outputs": [],
      "stateMutability": "nonpayable",
      "type": "function"
    },
    {
      "inputs": [
        {
          "internalType": "address",
          "name": "_address",
          "type": "address"
        }
      ],
      "name": "setSetter",
      "outputs": [],
      "stateMutability": "nonpayable",
      "type": "function"
    },
    {
      "inputs": [
        {
          "internalType": "address",
          "name": "_address",
          "type": "address"
        }
      ],
      "name": "setToken",
      "outputs": [],
      "stateMutability": "nonpayable",
      "type": "function"
    },
    {
      "inputs": [],
      "name": "setter",
      "outputs": [
        {
          "internalType": "address",
          "name": "",
          "type": "address"
        }
      ],
      "stateMutability": "view",
      "type": "function"
    },
    {
      "inputs": [],
      "name": "symbol",
      "outputs": [
        {
          "internalType": "string",
          "name": "",
          "type": "string"
        }
      ],
      "stateMutability": "view",
      "type": "function"
    },
    {
      "inputs": [],
      "name": "timeToUpgrade",
      "outputs": [
        {
          "internalType": "uint256",
          "name": "",
          "type": "uint256"
        }
      ],
      "stateMutability": "view",
      "type": "function"
    },
    {
      "inputs": [],
      "name": "token",
      "outputs": [
        {
          "internalType": "contract TestToken",
          "name": "",
          "type": "address"
        }
      ],
      "stateMutability": "view",
      "type": "function"
    },
    {
      "inputs": [],
      "name": "totalBurn",
      "outputs": [
        {
          "internalType": "uint256",
          "name": "",
          "type": "uint256"
        }
      ],
      "stateMutability": "view",
      "type": "function"
    },
    {
      "inputs": [],
      "name": "totalSupply",
      "outputs": [
        {
          "internalType": "uint256",
          "name": "",
          "type": "uint256"
        }
      ],
      "stateMutability": "view",
      "type": "function"
    },
    {
      "inputs": [
        {
          "internalType": "address",
          "name": "recipient",
          "type": "address"
        },
        {
          "internalType": "uint256",
          "name": "amount",
          "type": "uint256"
        }
      ],
      "name": "transfer",
      "outputs": [
        {
          "internalType": "bool",
          "name": "",
          "type": "bool"
        }
      ],
      "stateMutability": "nonpayable",
      "type": "function"
    },
    {
      "inputs": [
        {
          "internalType": "address",
          "name": "sender",
          "type": "address"
        },
        {
          "internalType": "address",
          "name": "recipient",
          "type": "address"
        },
        {
          "internalType": "uint256",
          "name": "amount",
          "type": "uint256"
        }
      ],
      "name": "transferFrom",
      "outputs": [
        {
          "internalType": "bool",
          "name": "",
          "type": "bool"
        }
      ],
      "stateMutability": "nonpayable",
      "type": "function"
    },
    {
      "inputs": [
        {
          "internalType": "address",
          "name": "newOwner",
          "type": "address"
        }
      ],
      "name": "transferOwnership",
      "outputs": [],
      "stateMutability": "nonpayable",
      "type": "function"
    },
    {
      "inputs": [],
      "name": "upgrade",
      "outputs": [],
      "stateMutability": "nonpayable",
      "type": "function"
    }
  ],
  "bytecode": "0x60806040526000600b556000600c553480156200001b57600080fd5b506040518060400160405280600781526020017f50726573616c65000000000000000000000000000000000000000000000000008152506040518060400160405280600281526020017f50530000000000000000000000000000000000000000000000000000000000008152508160039080519060200190620000a0929190620001f1565b508060049080519060200190620000b9929190620001f1565b505050620000dc620000d06200012360201b60201c565b6200012b60201b60201c565b33600960006101000a81548173ffffffffffffffffffffffffffffffffffffffff021916908373ffffffffffffffffffffffffffffffffffffffff16021790555062000306565b600033905090565b6000600560009054906101000a900473ffffffffffffffffffffffffffffffffffffffff16905081600560006101000a81548173ffffffffffffffffffffffffffffffffffffffff021916908373ffffffffffffffffffffffffffffffffffffffff1602179055508173ffffffffffffffffffffffffffffffffffffffff168173ffffffffffffffffffffffffffffffffffffffff167f8be0079c531659141344cd1fd0a4f28419497f9722a3daafe3b4186f6b6457e060405160405180910390a35050565b828054620001ff90620002a1565b90600052602060002090601f0160209004810192826200022357600085556200026f565b82601f106200023e57805160ff19168380011785556200026f565b828001600101855582156200026f579182015b828111156200026e57825182559160200191906001019062000251565b5b5090506200027e919062000282565b5090565b5b808211156200029d57600081600090555060010162000283565b5090565b60006002820490506001821680620002ba57607f821691505b60208210811415620002d157620002d0620002d7565b5b50919050565b7f4e487b7100000000000000000000000000000000000000000000000000000000600052602260045260246000fd5b612c1680620003166000396000f3fe608060405234801561001057600080fd5b50600436106101f05760003560e01c8063715018a61161010f578063aae46b64116100a2578063e4f20fb211610071578063e4f20fb2146105d0578063f2fde38b146105ec578063f99aa03d14610608578063fc0c546a14610624576101f0565b8063aae46b641461055c578063c62b3bea1461057a578063d55ec69714610596578063dd62ed3e146105a0576101f0565b806395d89b41116100de57806395d89b41146104ae5780639b207d5f146104cc578063a457c2d7146104fc578063a9059cbb1461052c576101f0565b8063715018a61461043a57806379cc6790146104445780638623ec7b146104605780638da5cb5b14610490576101f0565b8063313ce5671161018757806342966c681161015657806342966c681461038d57806351c0dd21146103a957806369315619146103da57806370a082311461040a576101f0565b8063313ce5671461030357806339509351146103215780633c9f861d146103515780633f3108f71461036f576101f0565b806318160ddd116101c357806318160ddd1461027d5780631d2611751461029b57806323b872dd146102b75780632803212f146102e7576101f0565b806306fdde03146101f55780630736177214610213578063095ea7b314610231578063144fa6d714610261575b600080fd5b6101fd610642565b60405161020a91906122be565b60405180910390f35b61021b6106d4565b60405161022891906124e0565b60405180910390f35b61024b60048036038101906102469190611f02565b6106da565b604051610258919061225f565b60405180910390f35b61027b60048036038101906102769190611e12565b6106f8565b005b6102856107b8565b60405161029291906124e0565b60405180910390f35b6102b560048036038101906102b09190611ec6565b6107c2565b005b6102d160048036038101906102cc9190611e77565b61091a565b6040516102de919061225f565b60405180910390f35b61030160048036038101906102fc9190611f02565b610a12565b005b61030b610aed565b60405161031891906124fb565b60405180910390f35b61033b60048036038101906103369190611f02565b610af6565b604051610348919061225f565b60405180910390f35b610359610ba2565b60405161036691906124e0565b60405180910390f35b610377610ba8565b604051610384919061221b565b60405180910390f35b6103a760048036038101906103a29190611f3e565b610bce565b005b6103c360048036038101906103be9190611e12565b610bf5565b6040516103d192919061227a565b60405180910390f35b6103f460048036038101906103ef9190611f02565b610c26565b60405161040191906124e0565b60405180910390f35b610424600480360381019061041f9190611e12565b610c4b565b60405161043191906124e0565b60405180910390f35b610442610c93565b005b61045e60048036038101906104599190611f02565b610d1b565b005b61047a60048036038101906104759190611f3e565b610d96565b604051610487919061221b565b60405180910390f35b610498610dd5565b6040516104a5919061221b565b60405180910390f35b6104b6610dff565b6040516104c391906122be565b60405180910390f35b6104e660048036038101906104e19190611f02565b610e91565b6040516104f3919061225f565b60405180910390f35b61051660048036038101906105119190611f02565b610f9d565b604051610523919061225f565b60405180910390f35b61054660048036038101906105419190611f02565b611088565b604051610553919061225f565b60405180910390f35b6105646110a6565b60405161057191906124e0565b60405180910390f35b610594600480360381019061058f9190611f02565b6110ad565b005b61059e6110d6565b005b6105ba60048036038101906105b59190611e3b565b61117f565b6040516105c791906124e0565b60405180910390f35b6105ea60048036038101906105e59190611f02565b611206565b005b61060660048036038101906106019190611e12565b6112ac565b005b610622600480360381019061061d9190611e12565b6113a4565b005b61062c611464565b60405161063991906122a3565b60405180910390f35b60606003805461065190612699565b80601f016020809104026020016040519081016040528092919081815260200182805461067d90612699565b80156106ca5780601f1061069f576101008083540402835291602001916106ca565b820191906000526020600020905b8154815290600101906020018083116106ad57829003601f168201915b5050505050905090565b600c5481565b60006106ee6106e761148a565b8484611492565b6001905092915050565b61070061148a565b73ffffffffffffffffffffffffffffffffffffffff1661071e610dd5565b73ffffffffffffffffffffffffffffffffffffffff1614610774576040517f08c379a000000000000000000000000000000000000000000000000000000000815260040161076b906123e0565b60405180910390fd5b80600a60006101000a81548173ffffffffffffffffffffffffffffffffffffffff021916908373ffffffffffffffffffffffffffffffffffffffff16021790555050565b6000600254905090565b600960009054906101000a900473ffffffffffffffffffffffffffffffffffffffff1673ffffffffffffffffffffffffffffffffffffffff163373ffffffffffffffffffffffffffffffffffffffff1614610852576040517f08c379a000000000000000000000000000000000000000000000000000000000815260040161084990612480565b60405180910390fd5b80600760008473ffffffffffffffffffffffffffffffffffffffff1673ffffffffffffffffffffffffffffffffffffffff16815260200190815260200160002060000160006101000a81548160ff0219169083151502179055508015610916576006829080600181540180825580915050600190039060005260206000200160009091909190916101000a81548173ffffffffffffffffffffffffffffffffffffffff021916908373ffffffffffffffffffffffffffffffffffffffff1602179055505b5050565b600061092784848461165d565b6000600160008673ffffffffffffffffffffffffffffffffffffffff1673ffffffffffffffffffffffffffffffffffffffff168152602001908152602001600020600061097261148a565b73ffffffffffffffffffffffffffffffffffffffff1673ffffffffffffffffffffffffffffffffffffffff168152602001908152602001600020549050828110156109f2576040517f08c379a00000000000000000000000000000000000000000000000000000000081526004016109e9906123c0565b60405180910390fd5b610a06856109fe61148a565b858403611492565b60019150509392505050565b600960009054906101000a900473ffffffffffffffffffffffffffffffffffffffff1673ffffffffffffffffffffffffffffffffffffffff163373ffffffffffffffffffffffffffffffffffffffff1614610aa2576040517f08c379a0000000000000000000000000000000000000000000000000000000008152600401610a9990612480565b60405180910390fd5b80600760008473ffffffffffffffffffffffffffffffffffffffff1673ffffffffffffffffffffffffffffffffffffffff168152602001908152602001600020600101819055505050565b60006012905090565b6000610b98610b0361148a565b848460016000610b1161148a565b73ffffffffffffffffffffffffffffffffffffffff1673ffffffffffffffffffffffffffffffffffffffff16815260200190815260200160002060008873ffffffffffffffffffffffffffffffffffffffff1673ffffffffffffffffffffffffffffffffffffffff16815260200190815260200160002054610b939190612532565b611492565b6001905092915050565b600b5481565b600960009054906101000a900473ffffffffffffffffffffffffffffffffffffffff1681565b610bd7816118de565b610bec81600b546118f290919063ffffffff16565b600b8190555050565b60076020528060005260406000206000915090508060000160009054906101000a900460ff16908060010154905082565b6008602052816000526040600020602052806000526040600020600091509150505481565b60008060008373ffffffffffffffffffffffffffffffffffffffff1673ffffffffffffffffffffffffffffffffffffffff168152602001908152602001600020549050919050565b610c9b61148a565b73ffffffffffffffffffffffffffffffffffffffff16610cb9610dd5565b73ffffffffffffffffffffffffffffffffffffffff1614610d0f576040517f08c379a0000000000000000000000000000000000000000000000000000000008152600401610d06906123e0565b60405180910390fd5b610d196000611908565b565b6000610d2e83610d2961148a565b61117f565b905081811015610d73576040517f08c379a0000000000000000000000000000000000000000000000000000000008152600401610d6a90612400565b60405180910390fd5b610d8783610d7f61148a565b848403611492565b610d9183836119ce565b505050565b60068181548110610da657600080fd5b906000526020600020016000915054906101000a900473ffffffffffffffffffffffffffffffffffffffff1681565b6000600560009054906101000a900473ffffffffffffffffffffffffffffffffffffffff16905090565b606060048054610e0e90612699565b80601f0160208091040260200160405190810160405280929190818152602001828054610e3a90612699565b8015610e875780601f10610e5c57610100808354040283529160200191610e87565b820191906000526020600020905b815481529060010190602001808311610e6a57829003601f168201915b5050505050905090565b600080600760008573ffffffffffffffffffffffffffffffffffffffff1673ffffffffffffffffffffffffffffffffffffffff168152602001908152602001600020600101541415610ee65760009050610f97565b600760008473ffffffffffffffffffffffffffffffffffffffff1673ffffffffffffffffffffffffffffffffffffffff1681526020019081526020016000206001015482600860008673ffffffffffffffffffffffffffffffffffffffff1673ffffffffffffffffffffffffffffffffffffffff16815260200190815260200160002060006201518042610f7a9190612588565b815260200190815260200160002054610f939190612532565b1190505b92915050565b60008060016000610fac61148a565b73ffffffffffffffffffffffffffffffffffffffff1673ffffffffffffffffffffffffffffffffffffffff16815260200190815260200160002060008573ffffffffffffffffffffffffffffffffffffffff1673ffffffffffffffffffffffffffffffffffffffff16815260200190815260200160002054905082811015611069576040517f08c379a0000000000000000000000000000000000000000000000000000000008152600401611060906124a0565b60405180910390fd5b61107d61107461148a565b85858403611492565b600191505092915050565b600061109c61109561148a565b848461165d565b6001905092915050565b6201518081565b6110b78282610d1b565b6110cc81600b546118f290919063ffffffff16565b600b819055505050565b60006110e133610c4b565b90506110ed33826119ce565b600a60009054906101000a900473ffffffffffffffffffffffffffffffffffffffff1673ffffffffffffffffffffffffffffffffffffffff166340c10f1933836040518363ffffffff1660e01b815260040161114a929190612236565b600060405180830381600087803b15801561116457600080fd5b505af1158015611178573d6000803e3d6000fd5b5050505050565b6000600160008473ffffffffffffffffffffffffffffffffffffffff1673ffffffffffffffffffffffffffffffffffffffff16815260200190815260200160002060008373ffffffffffffffffffffffffffffffffffffffff1673ffffffffffffffffffffffffffffffffffffffff16815260200190815260200160002054905092915050565b600760003373ffffffffffffffffffffffffffffffffffffffff1673ffffffffffffffffffffffffffffffffffffffff16815260200190815260200160002060000160009054906101000a900460ff16611295576040517f08c379a000000000000000000000000000000000000000000000000000000000815260040161128c90612380565b60405180910390fd5b61129e81611ba5565b6112a88282611c69565b5050565b6112b461148a565b73ffffffffffffffffffffffffffffffffffffffff166112d2610dd5565b73ffffffffffffffffffffffffffffffffffffffff1614611328576040517f08c379a000000000000000000000000000000000000000000000000000000000815260040161131f906123e0565b60405180910390fd5b600073ffffffffffffffffffffffffffffffffffffffff168173ffffffffffffffffffffffffffffffffffffffff161415611398576040517f08c379a000000000000000000000000000000000000000000000000000000000815260040161138f90612320565b60405180910390fd5b6113a181611908565b50565b6113ac61148a565b73ffffffffffffffffffffffffffffffffffffffff166113ca610dd5565b73ffffffffffffffffffffffffffffffffffffffff1614611420576040517f08c379a0000000000000000000000000000000000000000000000000000000008152600401611417906123e0565b60405180910390fd5b80600960006101000a81548173ffffffffffffffffffffffffffffffffffffffff021916908373ffffffffffffffffffffffffffffffffffffffff16021790555050565b600a60009054906101000a900473ffffffffffffffffffffffffffffffffffffffff1681565b600033905090565b600073ffffffffffffffffffffffffffffffffffffffff168373ffffffffffffffffffffffffffffffffffffffff161415611502576040517f08c379a00000000000000000000000000000000000000000000000000000000081526004016114f990612460565b60405180910390fd5b600073ffffffffffffffffffffffffffffffffffffffff168273ffffffffffffffffffffffffffffffffffffffff161415611572576040517f08c379a000000000000000000000000000000000000000000000000000000000815260040161156990612340565b60405180910390fd5b80600160008573ffffffffffffffffffffffffffffffffffffffff1673ffffffffffffffffffffffffffffffffffffffff16815260200190815260200160002060008473ffffffffffffffffffffffffffffffffffffffff1673ffffffffffffffffffffffffffffffffffffffff168152602001908152602001600020819055508173ffffffffffffffffffffffffffffffffffffffff168373ffffffffffffffffffffffffffffffffffffffff167f8c5be1e5ebec7d5bd14f71427d1e84f3dd0314c0f7b2291e5b200ac8c7c3b9258360405161165091906124e0565b60405180910390a3505050565b600073ffffffffffffffffffffffffffffffffffffffff168373ffffffffffffffffffffffffffffffffffffffff1614156116cd576040517f08c379a00000000000000000000000000000000000000000000000000000000081526004016116c490612440565b60405180910390fd5b600073ffffffffffffffffffffffffffffffffffffffff168273ffffffffffffffffffffffffffffffffffffffff16141561173d576040517f08c379a0000000000000000000000000000000000000000000000000000000008152600401611734906122e0565b60405180910390fd5b611748838383611dc9565b60008060008573ffffffffffffffffffffffffffffffffffffffff1673ffffffffffffffffffffffffffffffffffffffff168152602001908152602001600020549050818110156117ce576040517f08c379a00000000000000000000000000000000000000000000000000000000081526004016117c590612360565b60405180910390fd5b8181036000808673ffffffffffffffffffffffffffffffffffffffff1673ffffffffffffffffffffffffffffffffffffffff16815260200190815260200160002081905550816000808573ffffffffffffffffffffffffffffffffffffffff1673ffffffffffffffffffffffffffffffffffffffff16815260200190815260200160002060008282546118619190612532565b925050819055508273ffffffffffffffffffffffffffffffffffffffff168473ffffffffffffffffffffffffffffffffffffffff167fddf252ad1be2c89b69c2b068fc378daa952ba7f163c4a11628f55a4df523b3ef846040516118c591906124e0565b60405180910390a36118d8848484611dce565b50505050565b6118ef6118e961148a565b826119ce565b50565b600081836119009190612532565b905092915050565b6000600560009054906101000a900473ffffffffffffffffffffffffffffffffffffffff16905081600560006101000a81548173ffffffffffffffffffffffffffffffffffffffff021916908373ffffffffffffffffffffffffffffffffffffffff1602179055508173ffffffffffffffffffffffffffffffffffffffff168173ffffffffffffffffffffffffffffffffffffffff167f8be0079c531659141344cd1fd0a4f28419497f9722a3daafe3b4186f6b6457e060405160405180910390a35050565b600073ffffffffffffffffffffffffffffffffffffffff168273ffffffffffffffffffffffffffffffffffffffff161415611a3e576040517f08c379a0000000000000000000000000000000000000000000000000000000008152600401611a3590612420565b60405180910390fd5b611a4a82600083611dc9565b60008060008473ffffffffffffffffffffffffffffffffffffffff1673ffffffffffffffffffffffffffffffffffffffff16815260200190815260200160002054905081811015611ad0576040517f08c379a0000000000000000000000000000000000000000000000000000000008152600401611ac790612300565b60405180910390fd5b8181036000808573ffffffffffffffffffffffffffffffffffffffff1673ffffffffffffffffffffffffffffffffffffffff168152602001908152602001600020819055508160026000828254611b2791906125b9565b92505081905550600073ffffffffffffffffffffffffffffffffffffffff168373ffffffffffffffffffffffffffffffffffffffff167fddf252ad1be2c89b69c2b068fc378daa952ba7f163c4a11628f55a4df523b3ef84604051611b8c91906124e0565b60405180910390a3611ba083600084611dce565b505050565b80611bb03382610e91565b15611bf0576040517f08c379a0000000000000000000000000000000000000000000000000000000008152600401611be7906123a0565b60405180910390fd5b81600860003373ffffffffffffffffffffffffffffffffffffffff1673ffffffffffffffffffffffffffffffffffffffff16815260200190815260200160002060006201518042611c419190612588565b81526020019081526020016000206000828254611c5e9190612532565b925050819055505050565b600073ffffffffffffffffffffffffffffffffffffffff168273ffffffffffffffffffffffffffffffffffffffff161415611cd9576040517f08c379a0000000000000000000000000000000000000000000000000000000008152600401611cd0906124c0565b60405180910390fd5b611ce560008383611dc9565b8060026000828254611cf79190612532565b92505081905550806000808473ffffffffffffffffffffffffffffffffffffffff1673ffffffffffffffffffffffffffffffffffffffff1681526020019081526020016000206000828254611d4c9190612532565b925050819055508173ffffffffffffffffffffffffffffffffffffffff16600073ffffffffffffffffffffffffffffffffffffffff167fddf252ad1be2c89b69c2b068fc378daa952ba7f163c4a11628f55a4df523b3ef83604051611db191906124e0565b60405180910390a3611dc560008383611dce565b5050565b505050565b505050565b600081359050611de281612b9b565b92915050565b600081359050611df781612bb2565b92915050565b600081359050611e0c81612bc9565b92915050565b600060208284031215611e2457600080fd5b6000611e3284828501611dd3565b91505092915050565b60008060408385031215611e4e57600080fd5b6000611e5c85828601611dd3565b9250506020611e6d85828601611dd3565b9150509250929050565b600080600060608486031215611e8c57600080fd5b6000611e9a86828701611dd3565b9350506020611eab86828701611dd3565b9250506040611ebc86828701611dfd565b9150509250925092565b60008060408385031215611ed957600080fd5b6000611ee785828601611dd3565b9250506020611ef885828601611de8565b9150509250929050565b60008060408385031215611f1557600080fd5b6000611f2385828601611dd3565b9250506020611f3485828601611dfd565b9150509250929050565b600060208284031215611f5057600080fd5b6000611f5e84828501611dfd565b91505092915050565b611f70816125ed565b82525050565b611f7f816125ff565b82525050565b611f8e81612642565b82525050565b6000611f9f82612516565b611fa98185612521565b9350611fb9818560208601612666565b611fc281612758565b840191505092915050565b6000611fda602383612521565b9150611fe582612769565b604082019050919050565b6000611ffd602283612521565b9150612008826127b8565b604082019050919050565b6000612020602683612521565b915061202b82612807565b604082019050919050565b6000612043602283612521565b915061204e82612856565b604082019050919050565b6000612066602683612521565b9150612071826128a5565b604082019050919050565b6000612089600b83612521565b9150612094826128f4565b602082019050919050565b60006120ac600583612521565b91506120b78261291d565b602082019050919050565b60006120cf602883612521565b91506120da82612946565b604082019050919050565b60006120f2602083612521565b91506120fd82612995565b602082019050919050565b6000612115602483612521565b9150612120826129be565b604082019050919050565b6000612138602183612521565b915061214382612a0d565b604082019050919050565b600061215b602583612521565b915061216682612a5c565b604082019050919050565b600061217e602483612521565b915061218982612aab565b604082019050919050565b60006121a1600b83612521565b91506121ac82612afa565b602082019050919050565b60006121c4602583612521565b91506121cf82612b23565b604082019050919050565b60006121e7601f83612521565b91506121f282612b72565b602082019050919050565b6122068161262b565b82525050565b61221581612635565b82525050565b60006020820190506122306000830184611f67565b92915050565b600060408201905061224b6000830185611f67565b61225860208301846121fd565b9392505050565b60006020820190506122746000830184611f76565b92915050565b600060408201905061228f6000830185611f76565b61229c60208301846121fd565b9392505050565b60006020820190506122b86000830184611f85565b92915050565b600060208201905081810360008301526122d88184611f94565b905092915050565b600060208201905081810360008301526122f981611fcd565b9050919050565b6000602082019050818103600083015261231981611ff0565b9050919050565b6000602082019050818103600083015261233981612013565b9050919050565b6000602082019050818103600083015261235981612036565b9050919050565b6000602082019050818103600083015261237981612059565b9050919050565b600060208201905081810360008301526123998161207c565b9050919050565b600060208201905081810360008301526123b98161209f565b9050919050565b600060208201905081810360008301526123d9816120c2565b9050919050565b600060208201905081810360008301526123f9816120e5565b9050919050565b6000602082019050818103600083015261241981612108565b9050919050565b600060208201905081810360008301526124398161212b565b9050919050565b600060208201905081810360008301526124598161214e565b9050919050565b6000602082019050818103600083015261247981612171565b9050919050565b6000602082019050818103600083015261249981612194565b9050919050565b600060208201905081810360008301526124b9816121b7565b9050919050565b600060208201905081810360008301526124d9816121da565b9050919050565b60006020820190506124f560008301846121fd565b92915050565b6000602082019050612510600083018461220c565b92915050565b600081519050919050565b600082825260208201905092915050565b600061253d8261262b565b91506125488361262b565b9250827fffffffffffffffffffffffffffffffffffffffffffffffffffffffffffffffff0382111561257d5761257c6126cb565b5b828201905092915050565b60006125938261262b565b915061259e8361262b565b9250826125ae576125ad6126fa565b5b828204905092915050565b60006125c48261262b565b91506125cf8361262b565b9250828210156125e2576125e16126cb565b5b828203905092915050565b60006125f88261260b565b9050919050565b60008115159050919050565b600073ffffffffffffffffffffffffffffffffffffffff82169050919050565b6000819050919050565b600060ff82169050919050565b600061264d82612654565b9050919050565b600061265f8261260b565b9050919050565b60005b83811015612684578082015181840152602081019050612669565b83811115612693576000848401525b50505050565b600060028204905060018216806126b157607f821691505b602082108114156126c5576126c4612729565b5b50919050565b7f4e487b7100000000000000000000000000000000000000000000000000000000600052601160045260246000fd5b7f4e487b7100000000000000000000000000000000000000000000000000000000600052601260045260246000fd5b7f4e487b7100000000000000000000000000000000000000000000000000000000600052602260045260246000fd5b6000601f19601f8301169050919050565b7f45524332303a207472616e7366657220746f20746865207a65726f206164647260008201527f6573730000000000000000000000000000000000000000000000000000000000602082015250565b7f45524332303a206275726e20616d6f756e7420657863656564732062616c616e60008201527f6365000000000000000000000000000000000000000000000000000000000000602082015250565b7f4f776e61626c653a206e6577206f776e657220697320746865207a65726f206160008201527f6464726573730000000000000000000000000000000000000000000000000000602082015250565b7f45524332303a20617070726f766520746f20746865207a65726f20616464726560008201527f7373000000000000000000000000000000000000000000000000000000000000602082015250565b7f45524332303a207472616e7366657220616d6f756e742065786365656473206260008201527f616c616e63650000000000000000000000000000000000000000000000000000602082015250565b7f4f6e6c79206d696e746572000000000000000000000000000000000000000000600082015250565b7f6c696d6974000000000000000000000000000000000000000000000000000000600082015250565b7f45524332303a207472616e7366657220616d6f756e742065786365656473206160008201527f6c6c6f77616e6365000000000000000000000000000000000000000000000000602082015250565b7f4f776e61626c653a2063616c6c6572206973206e6f7420746865206f776e6572600082015250565b7f45524332303a206275726e20616d6f756e74206578636565647320616c6c6f7760008201527f616e636500000000000000000000000000000000000000000000000000000000602082015250565b7f45524332303a206275726e2066726f6d20746865207a65726f2061646472657360008201527f7300000000000000000000000000000000000000000000000000000000000000602082015250565b7f45524332303a207472616e736665722066726f6d20746865207a65726f20616460008201527f6472657373000000000000000000000000000000000000000000000000000000602082015250565b7f45524332303a20617070726f76652066726f6d20746865207a65726f2061646460008201527f7265737300000000000000000000000000000000000000000000000000000000602082015250565b7f4f6e6c7920736574746572000000000000000000000000000000000000000000600082015250565b7f45524332303a2064656372656173656420616c6c6f77616e63652062656c6f7760008201527f207a65726f000000000000000000000000000000000000000000000000000000602082015250565b7f45524332303a206d696e7420746f20746865207a65726f206164647265737300600082015250565b612ba4816125ed565b8114612baf57600080fd5b50565b612bbb816125ff565b8114612bc657600080fd5b50565b612bd28161262b565b8114612bdd57600080fd5b5056fea2646970667358221220b0e20db5a499cc57a0b5bbefbe009e82389a89d9e642ae148334694fef90043064736f6c63430008020033",
  "linkReferences": {},
  "deployedLinkReferences": {}
}