{
  "_format": "hh-sol-artifact-1",
  "contractName": "TestToken",
  "sourceName": "contracts/presale/TestToken.sol",
  "abi": [
    {
      "inputs": [
        {
          "internalType": "uint256",
          "name": "initialSupply",
          "type": "uint256"
        }
      ],
      "stateMutability": "nonpayable",
      "type": "constructor"
    },
    {
      "anonymous": false,
      "inputs": [
        {
          "indexed": true,
          "internalType": "address",
          "name": "owner",
          "type": "address"
        },
        {
          "indexed": true,
          "internalType": "address",
          "name": "spender",
          "type": "address"
        },
        {
          "indexed": false,
          "internalType": "uint256",
          "name": "value",
          "type": "uint256"
        }
      ],
      "name": "Approval",
      "type": "event"
    },
    {
      "anonymous": false,
      "inputs": [
        {
          "indexed": true,
          "internalType": "address",
          "name": "previousOwner",
          "type": "address"
        },
        {
          "indexed": true,
          "internalType": "address",
          "name": "newOwner",
          "type": "address"
        }
      ],
      "name": "OwnershipTransferred",
      "type": "event"
    },
    {
      "anonymous": false,
      "inputs": [
        {
          "indexed": true,
          "internalType": "address",
          "name": "from",
          "type": "address"
        },
        {
          "indexed": true,
          "internalType": "address",
          "name": "to",
          "type": "address"
        },
        {
          "indexed": false,
          "internalType": "uint256",
          "name": "value",
          "type": "uint256"
        }
      ],
      "name": "Transfer",
      "type": "event"
    },
    {
      "inputs": [],
      "name": "DAILY_INTERVAL",
      "outputs": [
        {
          "internalType": "uint256",
          "name": "",
          "type": "uint256"
        }
      ],
      "stateMutability": "view",
      "type": "function"
    },
    {
      "inputs": [
        {
          "internalType": "address",
          "name": "",
          "type": "address"
        }
      ],
      "name": "allowMinting",
      "outputs": [
        {
          "internalType": "bool",
          "name": "allowed",
          "type": "bool"
        },
        {
          "internalType": "uint256",
          "name": "dailyLimit",
          "type": "uint256"
        }
      ],
      "stateMutability": "view",
      "type": "function"
    },
    {
      "inputs": [
        {
          "internalType": "address",
          "name": "owner",
          "type": "address"
        },
        {
          "internalType": "address",
          "name": "spender",
          "type": "address"
        }
      ],
      "name": "allowance",
      "outputs": [
        {
          "internalType": "uint256",
          "name": "",
          "type": "uint256"
        }
      ],
      "stateMutability": "view",
      "type": "function"
    },
    {
      "inputs": [
        {
          "internalType": "address",
          "name": "spender",
          "type": "address"
        },
        {
          "internalType": "uint256",
          "name": "amount",
          "type": "uint256"
        }
      ],
      "name": "approve",
      "outputs": [
        {
          "internalType": "bool",
          "name": "",
          "type": "bool"
        }
      ],
      "stateMutability": "nonpayable",
      "type": "function"
    },
    {
      "inputs": [
        {
          "internalType": "address",
          "name": "account",
          "type": "address"
        }
      ],
      "name": "balanceOf",
      "outputs": [
        {
          "internalType": "uint256",
          "name": "",
          "type": "uint256"
        }
      ],
      "stateMutability": "view",
      "type": "function"
    },
    {
      "inputs": [
        {
          "internalType": "uint256",
          "name": "_amount",
          "type": "uint256"
        }
      ],
      "name": "burn",
      "outputs": [],
      "stateMutability": "nonpayable",
      "type": "function"
    },
    {
      "inputs": [
        {
          "internalType": "address",
          "name": "_account",
          "type": "address"
        },
        {
          "internalType": "uint256",
          "name": "_amount",
          "type": "uint256"
        }
      ],
      "name": "burnForm",
      "outputs": [],
      "stateMutability": "nonpayable",
      "type": "function"
    },
    {
      "inputs": [
        {
          "internalType": "address",
          "name": "account",
          "type": "address"
        },
        {
          "internalType": "uint256",
          "name": "amount",
          "type": "uint256"
        }
      ],
      "name": "burnFrom",
      "outputs": [],
      "stateMutability": "nonpayable",
      "type": "function"
    },
    {
      "inputs": [
        {
          "internalType": "address",
          "name": "",
          "type": "address"
        },
        {
          "internalType": "uint256",
          "name": "",
          "type": "uint256"
        }
      ],
      "name": "dailyMint",
      "outputs": [
        {
          "internalType": "uint256",
          "name": "",
          "type": "uint256"
        }
      ],
      "stateMutability": "view",
      "type": "function"
    },
    {
      "inputs": [],
      "name": "decimals",
      "outputs": [
        {
          "internalType": "uint8",
          "name": "",
          "type": "uint8"
        }
      ],
      "stateMutability": "view",
      "type": "function"
    },
    {
      "inputs": [
        {
          "internalType": "address",
          "name": "spender",
          "type": "address"
        },
        {
          "internalType": "uint256",
          "name": "subtractedValue",
          "type": "uint256"
        }
      ],
      "name": "decreaseAllowance",
      "outputs": [
        {
          "internalType": "bool",
          "name": "",
          "type": "bool"
        }
      ],
      "stateMutability": "nonpayable",
      "type": "function"
    },
    {
      "inputs": [
        {
          "internalType": "address",
          "name": "spender",
          "type": "address"
        },
        {
          "internalType": "uint256",
          "name": "addedValue",
          "type": "uint256"
        }
      ],
      "name": "increaseAllowance",
      "outputs": [
        {
          "internalType": "bool",
          "name": "",
          "type": "bool"
        }
      ],
      "stateMutability": "nonpayable",
      "type": "function"
    },
    {
      "inputs": [
        {
          "internalType": "address",
          "name": "_to",
          "type": "address"
        },
        {
          "internalType": "uint256",
          "name": "_amount",
          "type": "uint256"
        }
      ],
      "name": "mint",
      "outputs": [],
      "stateMutability": "nonpayable",
      "type": "function"
    },
    {
      "inputs": [
        {
          "internalType": "address",
          "name": "_address",
          "type": "address"
        },
        {
          "internalType": "uint256",
          "name": "_amount",
          "type": "uint256"
        }
      ],
      "name": "mintDailyLimited",
      "outputs": [
        {
          "internalType": "bool",
          "name": "",
          "type": "bool"
        }
      ],
      "stateMutability": "view",
      "type": "function"
    },
    {
      "inputs": [
        {
          "internalType": "uint256",
          "name": "",
          "type": "uint256"
        }
      ],
      "name": "minters",
      "outputs": [
        {
          "internalType": "address",
          "name": "",
          "type": "address"
        }
      ],
      "stateMutability": "view",
      "type": "function"
    },
    {
      "inputs": [],
      "name": "name",
      "outputs": [
        {
          "internalType": "string",
          "name": "",
          "type": "string"
        }
      ],
      "stateMutability": "view",
      "type": "function"
    },
    {
      "inputs": [],
      "name": "owner",
      "outputs": [
        {
          "internalType": "address",
          "name": "",
          "type": "address"
        }
      ],
      "stateMutability": "view",
      "type": "function"
    },
    {
      "inputs": [],
      "name": "renounceOwnership",
      "outputs": [],
      "stateMutability": "nonpayable",
      "type": "function"
    },
    {
      "inputs": [
        {
          "internalType": "address",
          "name": "_address",
          "type": "address"
        },
        {
          "internalType": "bool",
          "name": "_allowed",
          "type": "bool"
        }
      ],
      "name": "setAllowMint",
      "outputs": [],
      "stateMutability": "nonpayable",
      "type": "function"
    },
    {
      "inputs": [
        {
          "internalType": "address",
          "name": "_address",
          "type": "address"
        },
        {
          "internalType": "uint256",
          "name": "_mintAmount",
          "type": "uint256"
        }
      ],
      "name": "setDailyLimit",
      "outputs": [],
      "stateMutability": "nonpayable",
      "type": "function"
    },
    {
      "inputs": [
        {
          "internalType": "address",
          "name": "_address",
          "type": "address"
        }
      ],
      "name": "setSetter",
      "outputs": [],
      "stateMutability": "nonpayable",
      "type": "function"
    },
    {
      "inputs": [],
      "name": "setter",
      "outputs": [
        {
          "internalType": "address",
          "name": "",
          "type": "address"
        }
      ],
      "stateMutability": "view",
      "type": "function"
    },
    {
      "inputs": [],
      "name": "symbol",
      "outputs": [
        {
          "internalType": "string",
          "name": "",
          "type": "string"
        }
      ],
      "stateMutability": "view",
      "type": "function"
    },
    {
      "inputs": [],
      "name": "totalBurn",
      "outputs": [
        {
          "internalType": "uint256",
          "name": "",
          "type": "uint256"
        }
      ],
      "stateMutability": "view",
      "type": "function"
    },
    {
      "inputs": [],
      "name": "totalSupply",
      "outputs": [
        {
          "internalType": "uint256",
          "name": "",
          "type": "uint256"
        }
      ],
      "stateMutability": "view",
      "type": "function"
    },
    {
      "inputs": [
        {
          "internalType": "address",
          "name": "recipient",
          "type": "address"
        },
        {
          "internalType": "uint256",
          "name": "amount",
          "type": "uint256"
        }
      ],
      "name": "transfer",
      "outputs": [
        {
          "internalType": "bool",
          "name": "",
          "type": "bool"
        }
      ],
      "stateMutability": "nonpayable",
      "type": "function"
    },
    {
      "inputs": [
        {
          "internalType": "address",
          "name": "sender",
          "type": "address"
        },
        {
          "internalType": "address",
          "name": "recipient",
          "type": "address"
        },
        {
          "internalType": "uint256",
          "name": "amount",
          "type": "uint256"
        }
      ],
      "name": "transferFrom",
      "outputs": [
        {
          "internalType": "bool",
          "name": "",
          "type": "bool"
        }
      ],
      "stateMutability": "nonpayable",
      "type": "function"
    },
    {
      "inputs": [
        {
          "internalType": "address",
          "name": "newOwner",
          "type": "address"
        }
      ],
      "name": "transferOwnership",
      "outputs": [],
      "stateMutability": "nonpayable",
      "type": "function"
    }
  ],
  "bytecode": "0x60806040526000600a553480156200001657600080fd5b5060405162002d1a38038062002d1a83398181016040528101906200003c9190620002d9565b6040518060400160405280600481526020017f54657374000000000000000000000000000000000000000000000000000000008152506040518060400160405280600381526020017f54535400000000000000000000000000000000000000000000000000000000008152508160039080519060200190620000c092919062000212565b508060049080519060200190620000d992919062000212565b505050620000fc620000f06200014460201b60201c565b6200014c60201b60201c565b33600960006101000a81548173ffffffffffffffffffffffffffffffffffffffff021916908373ffffffffffffffffffffffffffffffffffffffff160217905550506200038e565b600033905090565b6000600560009054906101000a900473ffffffffffffffffffffffffffffffffffffffff16905081600560006101000a81548173ffffffffffffffffffffffffffffffffffffffff021916908373ffffffffffffffffffffffffffffffffffffffff1602179055508173ffffffffffffffffffffffffffffffffffffffff168173ffffffffffffffffffffffffffffffffffffffff167f8be0079c531659141344cd1fd0a4f28419497f9722a3daafe3b4186f6b6457e060405160405180910390a35050565b82805462000220906200030f565b90600052602060002090601f01602090048101928262000244576000855562000290565b82601f106200025f57805160ff191683800117855562000290565b8280016001018555821562000290579182015b828111156200028f57825182559160200191906001019062000272565b5b5090506200029f9190620002a3565b5090565b5b80821115620002be576000816000905550600101620002a4565b5090565b600081519050620002d38162000374565b92915050565b600060208284031215620002ec57600080fd5b6000620002fc84828501620002c2565b91505092915050565b6000819050919050565b600060028204905060018216806200032857607f821691505b602082108114156200033f576200033e62000345565b5b50919050565b7f4e487b7100000000000000000000000000000000000000000000000000000000600052602260045260246000fd5b6200037f8162000305565b81146200038b57600080fd5b50565b61297c806200039e6000396000f3fe608060405234801561001057600080fd5b50600436106101c45760003560e01c806370a08231116100f9578063a457c2d711610097578063c62b3bea11610071578063c62b3bea14610530578063dd62ed3e1461054c578063f2fde38b1461057c578063f99aa03d14610598576101c4565b8063a457c2d7146104b2578063a9059cbb146104e2578063aae46b6414610512576101c4565b80638623ec7b116100d35780638623ec7b146104165780638da5cb5b1461044657806395d89b41146104645780639b207d5f14610482576101c4565b806370a08231146103c0578063715018a6146103f057806379cc6790146103fa576101c4565b8063395093511161016657806340c10f191161014057806340c10f191461032757806342966c681461034357806351c0dd211461035f5780636931561914610390576101c4565b806339509351146102bb5780633c9f861d146102eb5780633f3108f714610309576101c4565b80631d261175116101a25780631d2611751461023557806323b872dd146102515780632803212f14610281578063313ce5671461029d576101c4565b806306fdde03146101c9578063095ea7b3146101e757806318160ddd14610217575b600080fd5b6101d16105b4565b6040516101de9190612048565b60405180910390f35b61020160048036038101906101fc9190611cdf565b610646565b60405161020e9190612004565b60405180910390f35b61021f610664565b60405161022c919061226a565b60405180910390f35b61024f600480360381019061024a9190611ca3565b61066e565b005b61026b60048036038101906102669190611c54565b6107c6565b6040516102789190612004565b60405180910390f35b61029b60048036038101906102969190611cdf565b6108be565b005b6102a5610999565b6040516102b29190612285565b60405180910390f35b6102d560048036038101906102d09190611cdf565b6109a2565b6040516102e29190612004565b60405180910390f35b6102f3610a4e565b604051610300919061226a565b60405180910390f35b610311610a54565b60405161031e9190611fe9565b60405180910390f35b610341600480360381019061033c9190611cdf565b610a7a565b005b61035d60048036038101906103589190611d1b565b610b20565b005b61037960048036038101906103749190611bef565b610b47565b60405161038792919061201f565b60405180910390f35b6103aa60048036038101906103a59190611cdf565b610b78565b6040516103b7919061226a565b60405180910390f35b6103da60048036038101906103d59190611bef565b610b9d565b6040516103e7919061226a565b60405180910390f35b6103f8610be5565b005b610414600480360381019061040f9190611cdf565b610c6d565b005b610430600480360381019061042b9190611d1b565b610ce8565b60405161043d9190611fe9565b60405180910390f35b61044e610d27565b60405161045b9190611fe9565b60405180910390f35b61046c610d51565b6040516104799190612048565b60405180910390f35b61049c60048036038101906104979190611cdf565b610de3565b6040516104a99190612004565b60405180910390f35b6104cc60048036038101906104c79190611cdf565b610eef565b6040516104d99190612004565b60405180910390f35b6104fc60048036038101906104f79190611cdf565b610fda565b6040516105099190612004565b60405180910390f35b61051a610ff8565b604051610527919061226a565b60405180910390f35b61054a60048036038101906105459190611cdf565b610fff565b005b61056660048036038101906105619190611c18565b611028565b604051610573919061226a565b60405180910390f35b61059660048036038101906105919190611bef565b6110af565b005b6105b260048036038101906105ad9190611bef565b6111a7565b005b6060600380546105c3906123ff565b80601f01602080910402602001604051908101604052809291908181526020018280546105ef906123ff565b801561063c5780601f106106115761010080835404028352916020019161063c565b820191906000526020600020905b81548152906001019060200180831161061f57829003601f168201915b5050505050905090565b600061065a610653611267565b848461126f565b6001905092915050565b6000600254905090565b600960009054906101000a900473ffffffffffffffffffffffffffffffffffffffff1673ffffffffffffffffffffffffffffffffffffffff163373ffffffffffffffffffffffffffffffffffffffff16146106fe576040517f08c379a00000000000000000000000000000000000000000000000000000000081526004016106f59061220a565b60405180910390fd5b80600760008473ffffffffffffffffffffffffffffffffffffffff1673ffffffffffffffffffffffffffffffffffffffff16815260200190815260200160002060000160006101000a81548160ff02191690831515021790555080156107c2576006829080600181540180825580915050600190039060005260206000200160009091909190916101000a81548173ffffffffffffffffffffffffffffffffffffffff021916908373ffffffffffffffffffffffffffffffffffffffff1602179055505b5050565b60006107d384848461143a565b6000600160008673ffffffffffffffffffffffffffffffffffffffff1673ffffffffffffffffffffffffffffffffffffffff168152602001908152602001600020600061081e611267565b73ffffffffffffffffffffffffffffffffffffffff1673ffffffffffffffffffffffffffffffffffffffff1681526020019081526020016000205490508281101561089e576040517f08c379a00000000000000000000000000000000000000000000000000000000081526004016108959061214a565b60405180910390fd5b6108b2856108aa611267565b85840361126f565b60019150509392505050565b600960009054906101000a900473ffffffffffffffffffffffffffffffffffffffff1673ffffffffffffffffffffffffffffffffffffffff163373ffffffffffffffffffffffffffffffffffffffff161461094e576040517f08c379a00000000000000000000000000000000000000000000000000000000081526004016109459061220a565b60405180910390fd5b80600760008473ffffffffffffffffffffffffffffffffffffffff1673ffffffffffffffffffffffffffffffffffffffff168152602001908152602001600020600101819055505050565b60006012905090565b6000610a446109af611267565b8484600160006109bd611267565b73ffffffffffffffffffffffffffffffffffffffff1673ffffffffffffffffffffffffffffffffffffffff16815260200190815260200160002060008873ffffffffffffffffffffffffffffffffffffffff1673ffffffffffffffffffffffffffffffffffffffff16815260200190815260200160002054610a3f91906122bc565b61126f565b6001905092915050565b600a5481565b600960009054906101000a900473ffffffffffffffffffffffffffffffffffffffff1681565b600760003373ffffffffffffffffffffffffffffffffffffffff1673ffffffffffffffffffffffffffffffffffffffff16815260200190815260200160002060000160009054906101000a900460ff16610b09576040517f08c379a0000000000000000000000000000000000000000000000000000000008152600401610b009061210a565b60405180910390fd5b610b12816116bb565b610b1c828261177f565b5050565b610b29816118df565b610b3e81600a546118f390919063ffffffff16565b600a8190555050565b60076020528060005260406000206000915090508060000160009054906101000a900460ff16908060010154905082565b6008602052816000526040600020602052806000526040600020600091509150505481565b60008060008373ffffffffffffffffffffffffffffffffffffffff1673ffffffffffffffffffffffffffffffffffffffff168152602001908152602001600020549050919050565b610bed611267565b73ffffffffffffffffffffffffffffffffffffffff16610c0b610d27565b73ffffffffffffffffffffffffffffffffffffffff1614610c61576040517f08c379a0000000000000000000000000000000000000000000000000000000008152600401610c589061216a565b60405180910390fd5b610c6b6000611909565b565b6000610c8083610c7b611267565b611028565b905081811015610cc5576040517f08c379a0000000000000000000000000000000000000000000000000000000008152600401610cbc9061218a565b60405180910390fd5b610cd983610cd1611267565b84840361126f565b610ce383836119cf565b505050565b60068181548110610cf857600080fd5b906000526020600020016000915054906101000a900473ffffffffffffffffffffffffffffffffffffffff1681565b6000600560009054906101000a900473ffffffffffffffffffffffffffffffffffffffff16905090565b606060048054610d60906123ff565b80601f0160208091040260200160405190810160405280929190818152602001828054610d8c906123ff565b8015610dd95780601f10610dae57610100808354040283529160200191610dd9565b820191906000526020600020905b815481529060010190602001808311610dbc57829003601f168201915b5050505050905090565b600080600760008573ffffffffffffffffffffffffffffffffffffffff1673ffffffffffffffffffffffffffffffffffffffff168152602001908152602001600020600101541415610e385760009050610ee9565b600760008473ffffffffffffffffffffffffffffffffffffffff1673ffffffffffffffffffffffffffffffffffffffff1681526020019081526020016000206001015482600860008673ffffffffffffffffffffffffffffffffffffffff1673ffffffffffffffffffffffffffffffffffffffff16815260200190815260200160002060006201518042610ecc9190612312565b815260200190815260200160002054610ee591906122bc565b1190505b92915050565b60008060016000610efe611267565b73ffffffffffffffffffffffffffffffffffffffff1673ffffffffffffffffffffffffffffffffffffffff16815260200190815260200160002060008573ffffffffffffffffffffffffffffffffffffffff1673ffffffffffffffffffffffffffffffffffffffff16815260200190815260200160002054905082811015610fbb576040517f08c379a0000000000000000000000000000000000000000000000000000000008152600401610fb29061222a565b60405180910390fd5b610fcf610fc6611267565b8585840361126f565b600191505092915050565b6000610fee610fe7611267565b848461143a565b6001905092915050565b6201518081565b6110098282610c6d565b61101e81600a546118f390919063ffffffff16565b600a819055505050565b6000600160008473ffffffffffffffffffffffffffffffffffffffff1673ffffffffffffffffffffffffffffffffffffffff16815260200190815260200160002060008373ffffffffffffffffffffffffffffffffffffffff1673ffffffffffffffffffffffffffffffffffffffff16815260200190815260200160002054905092915050565b6110b7611267565b73ffffffffffffffffffffffffffffffffffffffff166110d5610d27565b73ffffffffffffffffffffffffffffffffffffffff161461112b576040517f08c379a00000000000000000000000000000000000000000000000000000000081526004016111229061216a565b60405180910390fd5b600073ffffffffffffffffffffffffffffffffffffffff168173ffffffffffffffffffffffffffffffffffffffff16141561119b576040517f08c379a0000000000000000000000000000000000000000000000000000000008152600401611192906120aa565b60405180910390fd5b6111a481611909565b50565b6111af611267565b73ffffffffffffffffffffffffffffffffffffffff166111cd610d27565b73ffffffffffffffffffffffffffffffffffffffff1614611223576040517f08c379a000000000000000000000000000000000000000000000000000000000815260040161121a9061216a565b60405180910390fd5b80600960006101000a81548173ffffffffffffffffffffffffffffffffffffffff021916908373ffffffffffffffffffffffffffffffffffffffff16021790555050565b600033905090565b600073ffffffffffffffffffffffffffffffffffffffff168373ffffffffffffffffffffffffffffffffffffffff1614156112df576040517f08c379a00000000000000000000000000000000000000000000000000000000081526004016112d6906121ea565b60405180910390fd5b600073ffffffffffffffffffffffffffffffffffffffff168273ffffffffffffffffffffffffffffffffffffffff16141561134f576040517f08c379a0000000000000000000000000000000000000000000000000000000008152600401611346906120ca565b60405180910390fd5b80600160008573ffffffffffffffffffffffffffffffffffffffff1673ffffffffffffffffffffffffffffffffffffffff16815260200190815260200160002060008473ffffffffffffffffffffffffffffffffffffffff1673ffffffffffffffffffffffffffffffffffffffff168152602001908152602001600020819055508173ffffffffffffffffffffffffffffffffffffffff168373ffffffffffffffffffffffffffffffffffffffff167f8c5be1e5ebec7d5bd14f71427d1e84f3dd0314c0f7b2291e5b200ac8c7c3b9258360405161142d919061226a565b60405180910390a3505050565b600073ffffffffffffffffffffffffffffffffffffffff168373ffffffffffffffffffffffffffffffffffffffff1614156114aa576040517f08c379a00000000000000000000000000000000000000000000000000000000081526004016114a1906121ca565b60405180910390fd5b600073ffffffffffffffffffffffffffffffffffffffff168273ffffffffffffffffffffffffffffffffffffffff16141561151a576040517f08c379a00000000000000000000000000000000000000000000000000000000081526004016115119061206a565b60405180910390fd5b611525838383611ba6565b60008060008573ffffffffffffffffffffffffffffffffffffffff1673ffffffffffffffffffffffffffffffffffffffff168152602001908152602001600020549050818110156115ab576040517f08c379a00000000000000000000000000000000000000000000000000000000081526004016115a2906120ea565b60405180910390fd5b8181036000808673ffffffffffffffffffffffffffffffffffffffff1673ffffffffffffffffffffffffffffffffffffffff16815260200190815260200160002081905550816000808573ffffffffffffffffffffffffffffffffffffffff1673ffffffffffffffffffffffffffffffffffffffff168152602001908152602001600020600082825461163e91906122bc565b925050819055508273ffffffffffffffffffffffffffffffffffffffff168473ffffffffffffffffffffffffffffffffffffffff167fddf252ad1be2c89b69c2b068fc378daa952ba7f163c4a11628f55a4df523b3ef846040516116a2919061226a565b60405180910390a36116b5848484611bab565b50505050565b806116c63382610de3565b15611706576040517f08c379a00000000000000000000000000000000000000000000000000000000081526004016116fd9061212a565b60405180910390fd5b81600860003373ffffffffffffffffffffffffffffffffffffffff1673ffffffffffffffffffffffffffffffffffffffff168152602001908152602001600020600062015180426117579190612312565b8152602001908152602001600020600082825461177491906122bc565b925050819055505050565b600073ffffffffffffffffffffffffffffffffffffffff168273ffffffffffffffffffffffffffffffffffffffff1614156117ef576040517f08c379a00000000000000000000000000000000000000000000000000000000081526004016117e69061224a565b60405180910390fd5b6117fb60008383611ba6565b806002600082825461180d91906122bc565b92505081905550806000808473ffffffffffffffffffffffffffffffffffffffff1673ffffffffffffffffffffffffffffffffffffffff168152602001908152602001600020600082825461186291906122bc565b925050819055508173ffffffffffffffffffffffffffffffffffffffff16600073ffffffffffffffffffffffffffffffffffffffff167fddf252ad1be2c89b69c2b068fc378daa952ba7f163c4a11628f55a4df523b3ef836040516118c7919061226a565b60405180910390a36118db60008383611bab565b5050565b6118f06118ea611267565b826119cf565b50565b6000818361190191906122bc565b905092915050565b6000600560009054906101000a900473ffffffffffffffffffffffffffffffffffffffff16905081600560006101000a81548173ffffffffffffffffffffffffffffffffffffffff021916908373ffffffffffffffffffffffffffffffffffffffff1602179055508173ffffffffffffffffffffffffffffffffffffffff168173ffffffffffffffffffffffffffffffffffffffff167f8be0079c531659141344cd1fd0a4f28419497f9722a3daafe3b4186f6b6457e060405160405180910390a35050565b600073ffffffffffffffffffffffffffffffffffffffff168273ffffffffffffffffffffffffffffffffffffffff161415611a3f576040517f08c379a0000000000000000000000000000000000000000000000000000000008152600401611a36906121aa565b60405180910390fd5b611a4b82600083611ba6565b60008060008473ffffffffffffffffffffffffffffffffffffffff1673ffffffffffffffffffffffffffffffffffffffff16815260200190815260200160002054905081811015611ad1576040517f08c379a0000000000000000000000000000000000000000000000000000000008152600401611ac89061208a565b60405180910390fd5b8181036000808573ffffffffffffffffffffffffffffffffffffffff1673ffffffffffffffffffffffffffffffffffffffff168152602001908152602001600020819055508160026000828254611b289190612343565b92505081905550600073ffffffffffffffffffffffffffffffffffffffff168373ffffffffffffffffffffffffffffffffffffffff167fddf252ad1be2c89b69c2b068fc378daa952ba7f163c4a11628f55a4df523b3ef84604051611b8d919061226a565b60405180910390a3611ba183600084611bab565b505050565b505050565b505050565b600081359050611bbf81612901565b92915050565b600081359050611bd481612918565b92915050565b600081359050611be98161292f565b92915050565b600060208284031215611c0157600080fd5b6000611c0f84828501611bb0565b91505092915050565b60008060408385031215611c2b57600080fd5b6000611c3985828601611bb0565b9250506020611c4a85828601611bb0565b9150509250929050565b600080600060608486031215611c6957600080fd5b6000611c7786828701611bb0565b9350506020611c8886828701611bb0565b9250506040611c9986828701611bda565b9150509250925092565b60008060408385031215611cb657600080fd5b6000611cc485828601611bb0565b9250506020611cd585828601611bc5565b9150509250929050565b60008060408385031215611cf257600080fd5b6000611d0085828601611bb0565b9250506020611d1185828601611bda565b9150509250929050565b600060208284031215611d2d57600080fd5b6000611d3b84828501611bda565b91505092915050565b611d4d81612377565b82525050565b611d5c81612389565b82525050565b6000611d6d826122a0565b611d7781856122ab565b9350611d878185602086016123cc565b611d90816124be565b840191505092915050565b6000611da86023836122ab565b9150611db3826124cf565b604082019050919050565b6000611dcb6022836122ab565b9150611dd68261251e565b604082019050919050565b6000611dee6026836122ab565b9150611df98261256d565b604082019050919050565b6000611e116022836122ab565b9150611e1c826125bc565b604082019050919050565b6000611e346026836122ab565b9150611e3f8261260b565b604082019050919050565b6000611e57600b836122ab565b9150611e628261265a565b602082019050919050565b6000611e7a6005836122ab565b9150611e8582612683565b602082019050919050565b6000611e9d6028836122ab565b9150611ea8826126ac565b604082019050919050565b6000611ec06020836122ab565b9150611ecb826126fb565b602082019050919050565b6000611ee36024836122ab565b9150611eee82612724565b604082019050919050565b6000611f066021836122ab565b9150611f1182612773565b604082019050919050565b6000611f296025836122ab565b9150611f34826127c2565b604082019050919050565b6000611f4c6024836122ab565b9150611f5782612811565b604082019050919050565b6000611f6f600b836122ab565b9150611f7a82612860565b602082019050919050565b6000611f926025836122ab565b9150611f9d82612889565b604082019050919050565b6000611fb5601f836122ab565b9150611fc0826128d8565b602082019050919050565b611fd4816123b5565b82525050565b611fe3816123bf565b82525050565b6000602082019050611ffe6000830184611d44565b92915050565b60006020820190506120196000830184611d53565b92915050565b60006040820190506120346000830185611d53565b6120416020830184611fcb565b9392505050565b600060208201905081810360008301526120628184611d62565b905092915050565b6000602082019050818103600083015261208381611d9b565b9050919050565b600060208201905081810360008301526120a381611dbe565b9050919050565b600060208201905081810360008301526120c381611de1565b9050919050565b600060208201905081810360008301526120e381611e04565b9050919050565b6000602082019050818103600083015261210381611e27565b9050919050565b6000602082019050818103600083015261212381611e4a565b9050919050565b6000602082019050818103600083015261214381611e6d565b9050919050565b6000602082019050818103600083015261216381611e90565b9050919050565b6000602082019050818103600083015261218381611eb3565b9050919050565b600060208201905081810360008301526121a381611ed6565b9050919050565b600060208201905081810360008301526121c381611ef9565b9050919050565b600060208201905081810360008301526121e381611f1c565b9050919050565b6000602082019050818103600083015261220381611f3f565b9050919050565b6000602082019050818103600083015261222381611f62565b9050919050565b6000602082019050818103600083015261224381611f85565b9050919050565b6000602082019050818103600083015261226381611fa8565b9050919050565b600060208201905061227f6000830184611fcb565b92915050565b600060208201905061229a6000830184611fda565b92915050565b600081519050919050565b600082825260208201905092915050565b60006122c7826123b5565b91506122d2836123b5565b9250827fffffffffffffffffffffffffffffffffffffffffffffffffffffffffffffffff0382111561230757612306612431565b5b828201905092915050565b600061231d826123b5565b9150612328836123b5565b92508261233857612337612460565b5b828204905092915050565b600061234e826123b5565b9150612359836123b5565b92508282101561236c5761236b612431565b5b828203905092915050565b600061238282612395565b9050919050565b60008115159050919050565b600073ffffffffffffffffffffffffffffffffffffffff82169050919050565b6000819050919050565b600060ff82169050919050565b60005b838110156123ea5780820151818401526020810190506123cf565b838111156123f9576000848401525b50505050565b6000600282049050600182168061241757607f821691505b6020821081141561242b5761242a61248f565b5b50919050565b7f4e487b7100000000000000000000000000000000000000000000000000000000600052601160045260246000fd5b7f4e487b7100000000000000000000000000000000000000000000000000000000600052601260045260246000fd5b7f4e487b7100000000000000000000000000000000000000000000000000000000600052602260045260246000fd5b6000601f19601f8301169050919050565b7f45524332303a207472616e7366657220746f20746865207a65726f206164647260008201527f6573730000000000000000000000000000000000000000000000000000000000602082015250565b7f45524332303a206275726e20616d6f756e7420657863656564732062616c616e60008201527f6365000000000000000000000000000000000000000000000000000000000000602082015250565b7f4f776e61626c653a206e6577206f776e657220697320746865207a65726f206160008201527f6464726573730000000000000000000000000000000000000000000000000000602082015250565b7f45524332303a20617070726f766520746f20746865207a65726f20616464726560008201527f7373000000000000000000000000000000000000000000000000000000000000602082015250565b7f45524332303a207472616e7366657220616d6f756e742065786365656473206260008201527f616c616e63650000000000000000000000000000000000000000000000000000602082015250565b7f4f6e6c79206d696e746572000000000000000000000000000000000000000000600082015250565b7f6c696d6974000000000000000000000000000000000000000000000000000000600082015250565b7f45524332303a207472616e7366657220616d6f756e742065786365656473206160008201527f6c6c6f77616e6365000000000000000000000000000000000000000000000000602082015250565b7f4f776e61626c653a2063616c6c6572206973206e6f7420746865206f776e6572600082015250565b7f45524332303a206275726e20616d6f756e74206578636565647320616c6c6f7760008201527f616e636500000000000000000000000000000000000000000000000000000000602082015250565b7f45524332303a206275726e2066726f6d20746865207a65726f2061646472657360008201527f7300000000000000000000000000000000000000000000000000000000000000602082015250565b7f45524332303a207472616e736665722066726f6d20746865207a65726f20616460008201527f6472657373000000000000000000000000000000000000000000000000000000602082015250565b7f45524332303a20617070726f76652066726f6d20746865207a65726f2061646460008201527f7265737300000000000000000000000000000000000000000000000000000000602082015250565b7f4f6e6c7920736574746572000000000000000000000000000000000000000000600082015250565b7f45524332303a2064656372656173656420616c6c6f77616e63652062656c6f7760008201527f207a65726f000000000000000000000000000000000000000000000000000000602082015250565b7f45524332303a206d696e7420746f20746865207a65726f206164647265737300600082015250565b61290a81612377565b811461291557600080fd5b50565b61292181612389565b811461292c57600080fd5b50565b612938816123b5565b811461294357600080fd5b5056fea2646970667358221220665fd6b324287604658010aab21791895926e58c44768498a1b4a63bffb60eb564736f6c63430008020033",
  "linkReferences": {},
  "deployedLinkReferences": {}
}